{
  "_format": "hh-sol-artifact-1",
  "contractName": "ERC20",
  "sourceName": "contracts/ERC20.sol",
  "abi": [
    {
      "inputs": [
        {
          "internalType": "uint256",
          "name": "_initialSupply",
          "type": "uint256"
        },
        {
          "internalType": "string",
          "name": "_name",
          "type": "string"
        }
      ],
      "stateMutability": "nonpayable",
      "type": "constructor"
    },
    {
      "anonymous": false,
      "inputs": [
        {
          "indexed": true,
          "internalType": "address",
          "name": "_owner",
          "type": "address"
        },
        {
          "indexed": true,
          "internalType": "address",
          "name": "_spender",
          "type": "address"
        },
        {
          "indexed": false,
          "internalType": "uint256",
          "name": "_value",
          "type": "uint256"
        }
      ],
      "name": "Approval",
      "type": "event"
    },
    {
      "anonymous": false,
      "inputs": [
        {
          "indexed": true,
          "internalType": "address",
          "name": "_from",
          "type": "address"
        },
        {
          "indexed": true,
          "internalType": "address",
          "name": "_to",
          "type": "address"
        },
        {
          "indexed": false,
          "internalType": "uint256",
          "name": "_value",
          "type": "uint256"
        }
      ],
      "name": "Transfer",
      "type": "event"
    },
    {
      "inputs": [
        {
          "internalType": "address",
          "name": "_owner",
          "type": "address"
        },
        {
          "internalType": "address",
          "name": "_spender",
          "type": "address"
        }
      ],
      "name": "allowance",
      "outputs": [
        {
          "internalType": "uint256",
          "name": "",
          "type": "uint256"
        }
      ],
      "stateMutability": "view",
      "type": "function"
    },
    {
      "inputs": [
        {
          "internalType": "address",
          "name": "",
          "type": "address"
        },
        {
          "internalType": "address",
          "name": "",
          "type": "address"
        }
      ],
      "name": "allowances",
      "outputs": [
        {
          "internalType": "uint256",
          "name": "",
          "type": "uint256"
        }
      ],
      "stateMutability": "view",
      "type": "function"
    },
    {
      "inputs": [
        {
          "internalType": "address",
          "name": "_spender",
          "type": "address"
        },
        {
          "internalType": "uint256",
          "name": "_amount",
          "type": "uint256"
        }
      ],
      "name": "approve",
      "outputs": [
        {
          "internalType": "bool",
          "name": "",
          "type": "bool"
        }
      ],
      "stateMutability": "nonpayable",
      "type": "function"
    },
    {
      "inputs": [
        {
          "internalType": "address",
          "name": "_owner",
          "type": "address"
        }
      ],
      "name": "balanceOf",
      "outputs": [
        {
          "internalType": "uint256",
          "name": "",
          "type": "uint256"
        }
      ],
      "stateMutability": "view",
      "type": "function"
    },
    {
      "inputs": [
        {
          "internalType": "address",
          "name": "",
          "type": "address"
        }
      ],
      "name": "balances",
      "outputs": [
        {
          "internalType": "uint256",
          "name": "",
          "type": "uint256"
        }
      ],
      "stateMutability": "view",
      "type": "function"
    },
    {
      "inputs": [],
      "name": "name",
      "outputs": [
        {
          "internalType": "string",
          "name": "",
          "type": "string"
        }
      ],
      "stateMutability": "view",
      "type": "function"
    },
    {
      "inputs": [],
      "name": "totalSupply",
      "outputs": [
        {
          "internalType": "uint256",
          "name": "",
          "type": "uint256"
        }
      ],
      "stateMutability": "view",
      "type": "function"
    },
    {
      "inputs": [
        {
          "internalType": "address",
          "name": "_to",
          "type": "address"
        },
        {
          "internalType": "uint256",
          "name": "_amount",
          "type": "uint256"
        }
      ],
      "name": "transfer",
      "outputs": [
        {
          "internalType": "bool",
          "name": "",
          "type": "bool"
        }
      ],
      "stateMutability": "nonpayable",
      "type": "function"
    },
    {
      "inputs": [
        {
          "internalType": "address",
          "name": "_from",
          "type": "address"
        },
        {
          "internalType": "address",
          "name": "_to",
          "type": "address"
        },
        {
          "internalType": "uint256",
          "name": "_amount",
          "type": "uint256"
        }
      ],
      "name": "transferFrom",
      "outputs": [
        {
          "internalType": "bool",
          "name": "",
          "type": "bool"
        }
      ],
      "stateMutability": "nonpayable",
      "type": "function"
    }
  ],
  "bytecode": "0x6080604052620015ad80380362000016816200041e565b8183823981810192506040818403121562000036576200003562000266565b5b805191506020808201516001600160401b03808211156200005c576200005b62000266565b5b818401935085601f850112151562000079576200007862000266565b5b83519150808211156200009157620000906200073b565b5b50620000a682601f19601f840116016200041e565b8181528583838601011115620000c157620000c062000266565b5b600095505b81861015620000e7578286850101518387830101525b8286019550620000c6565b81861115620000f95760008383830101525b62000105818662000501565b505050505050610e5c8062000751600039806000f3506200074f565b600080516020517f03daa95900000000000000000000000000000000000000000000000000000000835283600452602083602485336000905af158600e01573d6000803e3d6000fd5b3d6001141558600a015760016000f35b82519250816000528060205250505b919050565b600080516020517f03daa9590000000000000000000000000000000000000000000000000000000083526002600452602083602485336000905af158600e01573d6000803e3d6000fd5b3d6001141558600a015760016000f35b82519250816000528060205250505b90565b600080516020517f03daa9590000000000000000000000000000000000000000000000000000000083526003600452602083602485336000905af158600e01573d6000803e3d6000fd5b3d6001141558600a015760016000f35b82519250816000528060205250505b90565b7f3261326137616462000000000000000000000000000000000000000000000000600052602060045260006024526000600060646000336000905af158600e01573d6000803e3d6000fd5b3d6001141558600a015760016000f35bfe5b565b600080516020516040517f22bd64c00000000000000000000000000000000000000000000000000000000084526002600452846024528384604486336000905af158600e01573d6000803e3d6000fd5b3d6001141558600a015760016000f35b828452816020528060405250505050505b565b600080516020516040517f22bd64c00000000000000000000000000000000000000000000000000000000084526003600452846024528384604486336000905af158600e01573d6000803e3d6000fd5b3d6001141558600a015760016000f35b828452816020528060405250505050505b565b600080516020516040517f22bd64c000000000000000000000000000000000000000000000000000000000845284600452856024528384604486336000905af158600e01573d6000803e3d6000fd5b3d6001141558600a015760016000f35b82845281602052806040525050505050505b565b60006040519050601f19601f83011681018181106001600160401b03821117156200044e576200044d6200073b565b5b80604052505b919050565b6000600381526020812090505b90565b5b81811015620004fc576200047e8162000121565b506000805160208051604080517f22bd64c000000000000000000000000000000000000000000000000000000000865286600452856024528586604488336000905af158600e01573d6000803e3d6000fd5b3d6001141558600a015760016000f35b8486528284528082525050505050505b6001810190506200046a565b50505b565b600080517f7350906400000000000000000000000000000000000000000000000000000000825260208083600485336000905af158600e01573d6000803e3d6000fd5b3d6001141558600a015760016000f35b82518284526001600160a01b0381168452508281526040832091506200057a8262000121565b50620005878483620003ab565b620005916200018e565b506200059d84620002c5565b845191506001600160401b03821115620005bc57620005bb6200073b565b5b620005d0620005ca620001fa565b620006e0565b8382905084601f8511601f841181811715620005f357620005f062000459565b92505b80156200062657601f870160051c83018688101562000610578390505b62000624601f870160051c85018262000469565b505b5080600181146200065e5787945086156200064257838a015194505b6200065862000652888762000720565b62000338565b620006d3565b601f198716945082885b86811015620006975762000680868d015183620003ab565b60018201915087860195505b878101905062000668565b5087861015620006c057848b0151620006be60001960f88b60031b161c19821683620003ab565b505b50620006d260018860011b0162000338565b5b505050505050505050505b565b60008160011c905060018216801515620006fb57607f821691505b602082108114156200071957634e487b7160e01b6000526022600452fe5b505b919050565b60008260011b6000198460031b1c1983161790505b92915050565b634e487b7160e01b6000526041600452fe5b565bfe60406080815260043610151561021e5760003560e01c6306fdde03811461007d5763095ea7b381146100a5576318160ddd81146100d2576323b872dd81146100fa576327e235e38114610129576355b6ed5c8114610151576370a08231811461018e5763a9059cbb81146101b65763dd62ed3e81146101e35761021c565b6100863661051a565b61008e610c44565b82518061009b8383610698565b0381f3505061021c565b6100ae3661063d565b6100b8818361079f565b9150508251806100c88383610684565b0381f3505061021c565b6100db3661051a565b6100e361028b565b8251806100f083836106f2565b0381f3505061021c565b610103366105d4565b61010e8183856108ae565b9250505082518061011f8383610684565b0381f3505061021c565b61013a61013536610534565b610b95565b82518061014783836106f2565b0381f3505061021c565b61015a36610574565b61017461016f8261016a85610bb5565b610c11565b610d24565b91505082518061018483836106f2565b0381f3505061021c565b61019f61019a36610534565b610893565b8251806101ac83836106f2565b0381f3505061021c565b6101bf3661063d565b6101c98183610a18565b9150508251806101d98383610684565b0381f3505061021c565b6101ec36610574565b610206610201826101fc85610bd4565b610c11565b610363565b91505082518061021683836106f2565b0381f350505b505b506102276103d0565b610e5b565b600080517f73509064000000000000000000000000000000000000000000000000000000008252602082600484336000905af158600e01573d6000803e3d6000fd5b3d6001141558600a015760016000f35b8151915080600052505b90565b600080516020517f03daa9590000000000000000000000000000000000000000000000000000000083526002600452602083602485336000905af158600e01573d6000803e3d6000fd5b3d6001141558600a015760016000f35b82519250816000528060205250505b90565b600080516020517f03daa9590000000000000000000000000000000000000000000000000000000083526003600452602083602485336000905af158600e01573d6000803e3d6000fd5b3d6001141558600a015760016000f35b82519250816000528060205250505b90565b600080516020517f03daa95900000000000000000000000000000000000000000000000000000000835283600452602083602485336000905af158600e01573d6000803e3d6000fd5b3d6001141558600a015760016000f35b82519250816000528060205250505b919050565b7f3261326137616462000000000000000000000000000000000000000000000000600052602060045260006024526000600060646000336000905af158600e01573d6000803e3d6000fd5b3d6001141558600a015760016000f35bfe5b565b606481101561043a57fe5b60631981017f326132613761646200000000000000000000000000000000000000000000000081526020605f1983015260a4603f198301526000600061010883336000905af158600e01573d6000803e3d6000fd5b3d6001141558600a015760016000f35b50fe505b565b60648110156104b057fe5b60631981017f326132613761646200000000000000000000000000000000000000000000000081526020605f198301526084603f198301526000600060e883336000905af158600e01573d6000803e3d6000fd5b3d6001141558600a015760016000f35b50fe505b565b6000600319820112156105305761052f6103d0565b5b505b565b600060206003198301121561054c5761054b6103d0565b5b6004356001600160a01b0381168114151561056a576105696103d0565b5b809150505b919050565b6000600060406003198401121561058e5761058d6103d0565b5b6004356001600160a01b03808216821415156105ad576105ac6103d0565b5b8193506024359150808216821415156105c9576105c86103d0565b5b50809150505b915091565b6000600060006060600319850112156105f0576105ef6103d0565b5b6004356001600160a01b038082168214151561060f5761060e6103d0565b5b81945060243591508082168214151561062b5761062a6103d0565b5b508092505060443590505b9193909250565b60006000604060031984011215610657576106566103d0565b5b6004356001600160a01b03811681141515610675576106746103d0565b5b8092505060243590505b915091565b600060208201905082151582525b92915050565b6000602080835283518082850152825b818110156106c857828187010151604082870101525b82810190506106a8565b818111156106d95783604083870101525b506040601f19601f830116850101925050505b92915050565b60006020820190508282525b92915050565b6000600381526020812090505b90565b81815260006020820190505b92915050565b6000821982111561073a57610739610c30565b5b82820190505b92915050565b60008282101561075957610758610c30565b5b82820390505b92915050565b601f19601f830116810181811067ffffffffffffffff8211171561079557634e487b7160e01b6000526041600452fe5b806040525050505b565b600080517f7350906400000000000000000000000000000000000000000000000000000000808352602083600485336000905af158600e01573d6000803e3d6000fd5b3d6001141558600a015760016000f35b82518284526001600160a01b038116845250600160205261081f8561081a8660408720610c11565b610dde565b8251915080835250602082600484336000905af158600e01573d6000803e3d6000fd5b3d6001141558600a015760016000f35b8151818352604051915084825283817f8c5be1e5ebec7d5bd14f71427d1e84f3dd0314c0f7b2291e5b200ac8c7c3b925602085a35050600190505b92915050565b60006108a66108a183610bf3565b610363565b90505b919050565b6000836108c26108bd84610bf3565b610363565b101561095f5760405162461bcd60e51b815260206004820152604f60248201527f43616e2774207472616e736665722066726f6d2074686520646573697265642060448201527f6163636f756e74206265636175736520697420646f65736e277420686176652060648201527f656e6f7567682062616c616e63652e0000000000000000000000000000000000608482015261095d8161042f565b505b61096882610bd4565b61098c8561098561098061097a61022c565b85610c11565b610363565b1015610d3c565b5061099683610bf3565b6109b16109ab866109a684610363565b610726565b82610dde565b506109bb82610bf3565b6109d66109d0866109cb84610363565b610746565b82610dde565b5060405183837fddf252ad1be2c89b69c2b068fc378daa952ba7f163c4a11628f55a4df523b3ef83610a0889866106f2565b0384a350600190505b9392505050565b600080517f73509064000000000000000000000000000000000000000000000000000000008252602082600484336000905af158600e01573d6000803e3d6000fd5b3d6001141558600a015760016000f35b815181835284610a81610a7c83610bf3565b610363565b1015610af957604051915062461bcd60e51b825260206004830152603460248301527f596f7520646f6e2774206861766520656e6f7567682062616c616e636520746f60448301527f206d616b652074686973207472616e73666572210000000000000000000000006064830152610af8826104a5565b5b5050610b0b610b0661022c565b610bf3565b610b26610b2085610b1b84610363565b610746565b82610dde565b50610b3082610bf3565b610b4b610b4585610b4084610363565b610726565b82610dde565b50610b5461022c565b60405183827fddf252ad1be2c89b69c2b068fc378daa952ba7f163c4a11628f55a4df523b3ef83610b8589866106f2565b0384a35050600190505b92915050565b6000610ba8610ba383610bf3565b610363565b8160031b1c90505b919050565b60006001600160a01b038216815260016020526040812090505b919050565b60006001600160a01b038216815260016020526040812090505b919050565b60006001600160a01b0382168152806020526040812090505b919050565b60006001600160a01b0383168152816020526040812090505b92915050565b634e487b7160e01b6000526011600452fe5b565b600080151515610c5e57634e487b7160e01b815280600452fe5b60405181610c6a6102f7565b83600182811c9150808316801515610c8357607f831692505b6020808410821415610ca057634e487b7160e01b88526022600452fe5b610caa8488610714565b8260008114610cc05760018114610cd157610d08565b60ff19871682528282019750610d08565b610cd9610704565b8a5b87811015610d0057610cec82610363565b8185015286820191505b8481019050610cdb565b808401995050505b50505050505050610d1b82820383610765565b50809150505b90565b6000610d2f82610363565b8160031b1c90505b919050565b801515610dda5760405162461bcd60e51b815260206004820152605660248201527f43616e2774207472616e736665722066726f6d2074686520646573697265642060448201527f6163636f756e74206265636175736520796f7520646f6e27742068617665206560648201527f6e6f756768206f6620616e20616c6c6f77616e63652e000000000000000000006084820152610dd88161042f565b505b505b565b610de781610363565b50600080516020516040517f22bd64c000000000000000000000000000000000000000000000000000000000845284600452856024528384604486336000905af158600e01573d6000803e3d6000fd5b3d6001141558600a015760016000f35b82845281602052806040525050505050505b565b",
  "deployedBytecode": "0x1234",
  "linkReferences": {},
  "deployedLinkReferences": {}
}